{
  "contractName": "BettingGame",
  "abi": [
    {
      "inputs": [],
      "stateMutability": "nonpayable",
      "type": "constructor"
    },
    {
      "inputs": [],
      "name": "OutOfBalance",
      "type": "error"
    },
    {
      "anonymous": false,
      "inputs": [
        {
          "indexed": true,
          "internalType": "address",
          "name": "_from",
          "type": "address"
        },
        {
          "indexed": false,
          "internalType": "uint256",
          "name": "dice1",
          "type": "uint256"
        },
        {
          "indexed": false,
          "internalType": "uint256",
          "name": "dice2",
          "type": "uint256"
        }
      ],
      "name": "DicesRolled",
      "type": "event"
    },
    {
      "stateMutability": "payable",
      "type": "receive",
      "payable": true
    },
    {
      "inputs": [
        {
          "internalType": "bool",
          "name": "isEven",
          "type": "bool"
        }
      ],
      "name": "rollDices",
      "outputs": [
        {
          "internalType": "uint32",
          "name": "dice1",
          "type": "uint32"
        },
        {
          "internalType": "uint32",
          "name": "dice2",
          "type": "uint32"
        }
      ],
      "stateMutability": "payable",
      "type": "function",
      "payable": true
    },
    {
      "inputs": [
        {
          "internalType": "uint32",
          "name": "amount",
          "type": "uint32"
        }
      ],
      "name": "withdraw",
      "outputs": [],
      "stateMutability": "nonpayable",
      "type": "function"
    }
  ],
  "bytecode": "0x608060405234801561001057600080fd5b50336000806101000a81548173ffffffffffffffffffffffffffffffffffffffff021916908373ffffffffffffffffffffffffffffffffffffffff160217905550610755806100606000396000f3fe60806040526004361061002d5760003560e01c80633a00ac7214610039578063aa9224cd1461006a57610034565b3661003457005b600080fd5b610053600480360381019061004e9190610449565b610093565b604051610061929190610495565b60405180910390f35b34801561007657600080fd5b50610091600480360381019061008c91906104ea565b6102d3565b005b600080476002346100a49190610550565b11156100dc576040517fe48da08800000000000000000000000000000000000000000000000000000000815260040160405180910390fd5b60016006446100eb91906105d9565b6100f5919061060a565b9150600160064261010691906105d9565b610110919061060a565b905082801561013c575060006002828461012a919061060a565b6101349190610644565b63ffffffff16145b156101c95760003373ffffffffffffffffffffffffffffffffffffffff166002346101679190610550565b604051610173906106a6565b60006040518083038185875af1925050503d80600081146101b0576040519150601f19603f3d011682016040523d82523d6000602084013e6101b5565b606091505b50509050806101c357600080fd5b5061027e565b821580156101f457506001600282846101e2919061060a565b6101ec9190610644565b63ffffffff16145b1561027d5760003373ffffffffffffffffffffffffffffffffffffffff1660023461021f9190610550565b60405161022b906106a6565b60006040518083038185875af1925050503d8060008114610268576040519150601f19603f3d011682016040523d82523d6000602084013e61026d565b606091505b505090508061027b57600080fd5b505b5b3373ffffffffffffffffffffffffffffffffffffffff167f6d0503dcbeefcce713b075d526dabe2a8cef426c54080e45a6500cb6c9ade7be83836040516102c69291906106f6565b60405180910390a2915091565b60008054906101000a900473ffffffffffffffffffffffffffffffffffffffff1673ffffffffffffffffffffffffffffffffffffffff163373ffffffffffffffffffffffffffffffffffffffff161461032b57600080fd5b478163ffffffff16111561036b576040517fe48da08800000000000000000000000000000000000000000000000000000000815260040160405180910390fd5b60008060009054906101000a900473ffffffffffffffffffffffffffffffffffffffff1673ffffffffffffffffffffffffffffffffffffffff168263ffffffff166040516103b8906106a6565b60006040518083038185875af1925050503d80600081146103f5576040519150601f19603f3d011682016040523d82523d6000602084013e6103fa565b606091505b505090508061040857600080fd5b5050565b600080fd5b60008115159050919050565b61042681610411565b811461043157600080fd5b50565b6000813590506104438161041d565b92915050565b60006020828403121561045f5761045e61040c565b5b600061046d84828501610434565b91505092915050565b600063ffffffff82169050919050565b61048f81610476565b82525050565b60006040820190506104aa6000830185610486565b6104b76020830184610486565b9392505050565b6104c781610476565b81146104d257600080fd5b50565b6000813590506104e4816104be565b92915050565b600060208284031215610500576104ff61040c565b5b600061050e848285016104d5565b91505092915050565b6000819050919050565b7f4e487b7100000000000000000000000000000000000000000000000000000000600052601160045260246000fd5b600061055b82610517565b915061056683610517565b9250817fffffffffffffffffffffffffffffffffffffffffffffffffffffffffffffffff048311821515161561059f5761059e610521565b5b828202905092915050565b7f4e487b7100000000000000000000000000000000000000000000000000000000600052601260045260246000fd5b60006105e482610517565b91506105ef83610517565b9250826105ff576105fe6105aa565b5b828206905092915050565b600061061582610476565b915061062083610476565b92508263ffffffff0382111561063957610638610521565b5b828201905092915050565b600061064f82610476565b915061065a83610476565b92508261066a576106696105aa565b5b828206905092915050565b600081905092915050565b50565b6000610690600083610675565b915061069b82610680565b600082019050919050565b60006106b182610683565b9150819050919050565b6000819050919050565b60006106e06106db6106d684610476565b6106bb565b610517565b9050919050565b6106f0816106c5565b82525050565b600060408201905061070b60008301856106e7565b61071860208301846106e7565b939250505056fea2646970667358221220db8df4790195d0973396672555fa1c2d04c1bcf1fbf1b069718a78d983f87b9664736f6c634300080e0033",
  "immutableReferences": {},
  "source": "// contracts/BettinGame.sol\n// SPDX-License-Identifier: MIT\npragma solidity ^0.8.0;\n\nerror OutOfBalance();\n\ncontract BettingGame {\n    address payable owner;\n    /// Using event helps to decrease gas usage\n    event DicesRolled(address indexed _from, uint dice1, uint dice2);\n\n    modifier onlyOwner() {\n        require(msg.sender == owner);\n        _;\n    }\n\n    constructor () { \n        owner = payable(msg.sender); \n    }\n\n    /// It's better to use Chainlink for randomness\n    function rollDices(bool isEven) external payable returns (uint32 dice1, uint32 dice2) {\n        if (msg.value * 2 > address(this).balance) {\n            revert OutOfBalance();\n        }\n\n        dice1 = uint32(block.difficulty % 6) + 1;\n        dice2 = uint32(block.timestamp % 6) + 1;\n        \n        if (isEven && (dice1 + dice2) % 2 == 0) {\n            (bool success, ) = payable(msg.sender).call{value: msg.value * 2}(\"\");\n            require(success);\n        } else if (!isEven && (dice1 + dice2) % 2 == 1) {\n            (bool success, ) = payable(msg.sender).call{value: msg.value * 2}(\"\");\n            require(success);\n        }\n\n        emit DicesRolled(msg.sender, dice1, dice2);\n    }\n\n    function withdraw(uint32 amount) external onlyOwner {\n        if (amount > address(this).balance) {\n            revert OutOfBalance();\n        }\n        (bool success, ) = owner.call{value: amount}(\"\");\n        require(success);\n    }\n\n    receive() external payable {\n    }\n}",
  "sourcePath": "/home/soe/Projects/betting_game_bc/contracts/BettingGame.sol",
  "compiler": {
    "name": "solc",
    "version": "0.8.14+commit.80d49f37.Emscripten.clang"
  },
  "schemaVersion": "3.4.7",
  "updatedAt": "2022-06-30T06:00:42.367Z",
  "networkType": "ethereum",
  "devdoc": {
    "kind": "dev",
    "methods": {},
    "version": 1
  },
  "userdoc": {
    "events": {
      "DicesRolled(address,uint256,uint256)": {
        "notice": "Using event helps to decrease gas usage"
      }
    },
    "kind": "user",
    "methods": {
      "rollDices(bool)": {
        "notice": "It's better to use Chainlink for randomness"
      }
    },
    "version": 1
  }
}